:100000000C9462000C948A000C948A000C948A0070
:100010000C948A000C948A000C948A000C948A0038
:100020000C948A000C948A000C948A000C948A0028
:100030000C948A000C948A000C948A000C948A0018
:100040000C947A020C948A000C94EA020C94C40278
:100050000C948A000C948A000C948A000C948A00F8
:100060000C948A000C948A000000000023002600F3
:10007000290000000000240027002A0000000000E2
:10008000250028002B0004040404040404040202D4
:100090000202020203030303030301020408102007
:1000A0004080010204081020010204081020000012
:1000B0000008000201000003040700000000000027
:1000C0000000D60411241FBECFEFD8E0DEBFCDBFA5
:1000D00011E0A0E0B1E0ECEBFCE002C005900D9275
:1000E000A032B107D9F721E0A0E2B1E001C01D9232
:1000F000A63CB207E1F710E0C2E6D0E004C02197C9
:10010000FE010E945606C136D107C9F70E9461035D
:100110000C945C060C94000090E0FC01E255FF4F4B
:100120002491FC01E656FF4F3491FC01EA57FF4F42
:10013000E491EE23C9F0222339F0233001F1A8F431
:10014000213019F1223029F1F0E0EE0FFF1FE458C1
:10015000FF4FA591B4918FB7F894EC91611126C02F
:1001600030953E233C938FBF08952730A9F0283067
:10017000C9F0243049F7809180008F7D03C08091C1
:1001800080008F7780938000DFCF84B58F7784BD28
:10019000DBCF84B58F7DFBCF8091B0008F778093CC
:1001A000B000D2CF8091B0008F7DF9CF3E2BDACF57
:1001B000CF93DF9390E0FC01E656FF4F24918A57DE
:1001C0009F4FFC0184918823D1F090E0880F991F04
:1001D000FC01EE58FF4FA591B491FC01E458FF4F8C
:1001E000C591D49161110EC09FB7F8948C91E22F04
:1001F000E0958E238C932881E223E8839FBFDF91D3
:10020000CF9108958FB7F894EC91E22BEC938FBFC8
:10021000F6CF3FB7F8948091250190912601A091E7
:100220002701B091280126B5A89B05C02F3F19F0E2
:100230000196A11DB11D3FBFBA2FA92F982F882766
:10024000BC01CD01620F711D811D911D42E0660F41
:10025000771F881F991F4A95D1F708958F929F9213
:10026000AF92BF92CF92DF92EF92FF924B015C016F
:100270000E9409016B017C010E9409016C197D0932
:100280008E099F09683E734081059105A8F321E01E
:10029000821A9108A108B10888EEC80E83E0D81E22
:1002A000E11CF11C81149104A104B10429F7FF9011
:1002B000EF90DF90CF90BF90AF909F908F90089578
:1002C000AF92BF92CF92DF92EF92FF920F931F9364
:1002D000CF93DF936C017B018B01040F151FEB01A2
:1002E0005E01AE18BF08C017D10759F06991D60159
:1002F000ED91FC910190F081E02DC6010995892BCB
:1003000079F7C501DF91CF911F910F91FF90EF9089
:10031000DF90CF90BF90AF900895FC01538D448D36
:10032000252F30E0842F90E0821B930B541710F0A0
:10033000CF96089501970895FC01918D828D9817AD
:1003400061F0A28DAE0FBF2FB11D5D968C91928D85
:100350009F5F9F73928F90E008958FEF9FEF0895B6
:10036000FC01918D828D981731F0828DE80FF11D7F
:10037000858D90E008958FEF9FEF0895FC01918D9A
:10038000228D892F90E0805C9F4F821B91098F7393
:100390009927089589E291E00E94BE0121E0892B0E
:1003A00009F420E0822F089580E090E0892B29F065
:1003B0000E94CA0181110C9400000895FC01A48DD3
:1003C000A80FB92FB11DA35ABF4F2C91848D90E077
:1003D00001968F739927848FA689B7892C93A0895A
:1003E000B1898C91837080648C93938D848D9813E4
:1003F00006C00288F389E02D80818F7D8083089577
:10040000EF92FF920F931F93CF93DF93EC0181E064
:10041000888F9B8D8C8D98131AC0E889F98980810B
:1004200085FF15C09FB7F894EE89FF896083E8893E
:10043000F98980818370806480839FBF81E090E030
:10044000DF91CF911F910F91FF90EF900895F62EBD
:100450000B8D10E00F5F1F4F0F731127E02E8C8D57
:100460008E110CC00FB607FCFACFE889F98980819C
:1004700085FFF5CFCE010E94DE01F1CFEB8DEC0FB1
:10048000FD2FF11DE35AFF4FF0829FB7F8940B8FB9
:10049000EA89FB8980818062CFCFCF93DF93EC0123
:1004A000888D8823B9F0AA89BB89E889F9898C915C
:1004B00085FD03C0808186FD0DC00FB607FCF7CF18
:1004C0008C9185FFF2CF808185FFEDCFCE010E9418
:1004D000DE01E9CFDF91CF910895FC01019000206A
:1004E000E9F73197AF01481B590BBC0189E291E054
:1004F0000C9460011F920F920FB60F9211242F934C
:100500003F938F939F93AF93BF93809121019091DD
:100510002201A0912301B09124013091200123E018
:10052000230F2D3758F50196A11DB11D20932001F1
:100530008093210190932201A0932301B093240181
:100540008091250190912601A0912701B091280169
:100550000196A11DB11D8093250190932601A093C2
:100560002701B0932801BF91AF919F918F913F9147
:100570002F910F900FBE0F901F90189526E8230F14
:100580000296A11DB11DD2CF1F920F920FB60F92EE
:1005900011242F933F934F935F936F937F938F9388
:1005A0009F93AF93BF93EF93FF9389E291E00E94F3
:1005B000DE01FF91EF91BF91AF919F918F917F915C
:1005C0006F915F914F913F912F910F900FBE0F90C0
:1005D0001F9018951F920F920FB60F9211242F9310
:1005E0008F939F93EF93FF93E0913901F0913A013C
:1005F0008081E0913F01F091400182FD1BC090811C
:10060000809142018F5F8F7320914301821741F0E7
:10061000E0914201F0E0E75DFE4F958F809342014B
:10062000FF91EF919F918F912F910F900FBE0F909F
:100630001F9018958081F4CFCF92DF92EF92FF92B6
:100640000F931F93E82FF92F05C0015011092109BD
:10065000310961F1908196239417B9F305C00150D7
:1006600011092109310911F1908196239413F7CFD3
:10067000C12CD12CE12CF12C0AC08FEFC81AD80A5A
:10068000E80AF80A0C151D052E053F0579F0808152
:100690008623841791F36C2D7D2D8E2D9F2D1F9118
:1006A0000F91FF90EF90DF90CF90089560E070E0A1
:1006B00080E090E01F910F91FF90EF90DF90CF903E
:1006C0000895CF93DF93CDB7DEB7A1970FB6F89417
:1006D000DEBF0FBECDBF789484B5826084BD84B583
:1006E000816084BD85B5826085BD85B5816085BD2D
:1006F00080916E00816080936E00109281008091E5
:10070000810082608093810080918100816080936C
:100710008100809180008160809380008091B10091
:1007200084608093B1008091B00081608093B000BC
:1007300080917A00846080937A0080917A00826050
:1007400080937A0080917A00816080937A00809112
:100750007A00806880937A001092C100E09139019C
:10076000F0913A0182E08083E0913501F091360109
:100770001082E0913701F09138018FEC8083109264
:100780004101E0913D01F0913E0186E08083E091DE
:100790003B01F0913C01808180618083E0913B01CD
:1007A000F0913C01808188608083E0913B01F09171
:1007B0003C01808180688083E0913B01F0913C01A5
:1007C00080818F7D808361E084E00E94D80060E0BA
:1007D00085E00E94D80061E088E00E94D80061E0D6
:1007E00089E00E94D80061E08AE00E94D8009FE979
:1007F000292E90E0392E2BE8822E20E0922E3AE02E
:10080000432E512C612C712C40E0A42E40E0B42EDC
:1008100060E084E00E948C0068EC70E080E090E092
:100820000E942E0161E084E00E948C0068EC70E080
:1008300080E090E00E942E0160E084E00E948C0045
:1008400068EC70E080E090E00E942E01F10164917C
:10085000F4018491E82FF0E0EE0FFF1FE859FF4FFD
:100860008591949100E412E42FE030E0462F0E943D
:100870001C03611571058105910529F06F5F7F4F9C
:100880008F4F9F4F9F700E943B0526E933E44BE05A
:100890005DE30E949F0520E030E040E05FE30E94BE
:1008A0009F050E9403056B018B0182E191E00E948C
:1008B0006D020D2C000CEE08FF08F7FE4AC06DE239
:1008C00089E291E00E94000222273327A9012C1916
:1008D0003D094E095F0919A2CE0181967C01CA012A
:1008E000B901A30192010E943406605DF701629391
:1008F0007F01211531054105510589F7E114F10406
:1009000019F0C7010E946D028DE191E00E946D0215
:1009100002331105A4F160E088E00E948C0060E0E1
:1009200089E00E948C0061E08AE00E948C0064E60D
:1009300070E080E090E00E942E01A114B10409F45F
:1009400067CF0E94CA01882309F462CF0E94000089
:100950005FCFA701960119A2CE0181967C01CA0141
:10096000B901A30192010E943406605DF701629310
:100970007F01211531054105510589F7BFCF0431AC
:10098000110554F060E088E00E948C0061E089E08D
:100990000E948C0060E0C8CF61E00A3011050CF4C1
:1009A00060E088E00E948C0060E0F1CFE9E2F1E0D5
:1009B0001382128288EE93E0A0E0B0E084839583F6
:1009C000A683B78384E091E09183808385EC90E0F7
:1009D0009587848784EC90E09787868780EC90E009
:1009E000918B808B81EC90E0938B828B82EC90E0FA
:1009F000958B848B86EC90E0978B868B118E128E74
:100A0000138E148E08950E940A056894B1110C94F7
:100A1000990508950E947E0588F09F5798F0B92F98
:100A20009927B751B0F0E1F0660F771F881F991F23
:100A30001AF0BA95C9F714C0B13091F00E94980528
:100A4000B1E008950C949805672F782F8827B85F38
:100A500039F0B93FCCF3869577956795B395D9F77B
:100A60003EF490958095709561957F4F8F4F9F4F85
:100A70000895E89409C097FB3EF490958095709591
:100A800061957F4F8F4F9F4F9923A9F0F92F96E9DA
:100A9000BB279395F695879577956795B795F1114F
:100AA000F8CFFAF4BB0F11F460FF1BC06F5F7F4FEC
:100AB0008F4F9F4F16C0882311F096E911C07723FE
:100AC00021F09EE8872F762F05C0662371F096E807
:100AD000862F70E060E02AF09A95660F771F881FD6
:100AE000DAF7880F9695879597F9089557FD9058EE
:100AF000440F551F59F05F3F71F04795880F97FBE2
:100B0000991F61F09F3F79F087950895121613069B
:100B10001406551FF2CF4695F1DF08C016161706CA
:100B20001806991FF1CF86957105610508940895FF
:100B3000E894BB2766277727CB0197F908950E9491
:100B4000B2050C9423060E94150638F00E941C067C
:100B500020F0952311F00C940C060C94120611242D
:100B60000C9499050E94760570F3959FC1F3950F3B
:100B700050E0551F629FF001729FBB27F00DB11D21
:100B8000639FAA27F00DB11DAA1F649F6627B00DB1
:100B9000A11D661F829F2227B00DA11D621F739F9A
:100BA000B00DA11D621F839FA00D611D221F749FA8
:100BB0003327A00D611D231F849F600D211D822FEF
:100BC000762F6A2F11249F5750409AF0F1F0882316
:100BD0004AF0EE0FFF1FBB1F661F771F881F915043
:100BE0005040A9F79E3F510580F00C940C060C94E0
:100BF00099055F3FE4F3983ED4F386957795679522
:100C0000B795F795E7959F5FC1F7FE2B880F911D6C
:100C10009695879597F9089597F99F6780E870E012
:100C200060E008959FEF80EC089500240A94161662
:100C3000170618060906089500240A9412161306CA
:100C4000140605060895092E0394000C11F4882358
:100C500052F0BB0F40F4BF2B11F460FF04C06F5F74
:100C60007F4F8F4F9F4F0895A1E21A2EAA1BBB1BE7
:100C7000FD010DC0AA1FBB1FEE1FFF1FA217B30768
:100C8000E407F50720F0A21BB30BE40BF50B661F7E
:100C9000771F881F991F1A9469F760957095809542
:100CA00090959B01AC01BD01CF010895EE0FFF1F90
:0C0CB0000590F491E02D0994F894FFCF1A
:100CBC0000000000000260018D014D02BE019C018C
:100CCC00B00144697374616E63653A20000D0A00CB
:00000001FF
